{
	"EncodedExtraArgs.sol": {
		"EncodeExtraArgs": {
			"abi": [
				{
					"inputs": [
						{
							"internalType": "uint256",
							"name": "gasLimit",
							"type": "uint256"
						}
					],
					"name": "encode",
					"outputs": [
						{
							"internalType": "bytes",
							"name": "extraArgsBytes",
							"type": "bytes"
						}
					],
					"stateMutability": "pure",
					"type": "function"
				}
			],
			"devdoc": {
				"kind": "dev",
				"methods": {},
				"version": 1
			},
			"evm": {
				"assembly": "    /* \"EncodedExtraArgs.sol\":177:1556  contract EncodeExtraArgs {... */\n  mstore(0x40, 0x80)\n  callvalue\n  dup1\n  iszero\n  tag_1\n  jumpi\n  0x00\n  dup1\n  revert\ntag_1:\n  pop\n  dataSize(sub_0)\n  dup1\n  dataOffset(sub_0)\n  0x00\n  codecopy\n  0x00\n  return\nstop\n\nsub_0: assembly {\n        /* \"EncodedExtraArgs.sol\":177:1556  contract EncodeExtraArgs {... */\n      mstore(0x40, 0x80)\n      callvalue\n      dup1\n      iszero\n      tag_1\n      jumpi\n      0x00\n      dup1\n      revert\n    tag_1:\n      pop\n      jumpi(tag_2, lt(calldatasize, 0x04))\n      shr(0xe0, calldataload(0x00))\n      dup1\n      0xdeb21fa2\n      eq\n      tag_3\n      jumpi\n    tag_2:\n      0x00\n      dup1\n      revert\n        /* \"EncodedExtraArgs.sol\":1266:1553  function encode(... */\n    tag_3:\n      tag_4\n      tag_5\n      calldatasize\n      0x04\n      tag_6\n      jump\t// in\n    tag_5:\n        /* \"EncodedExtraArgs.sol\":1420:1487  Client.EVMExtraArgsV1({... */\n      0x40\n      dup1\n      mload\n      0x20\n      dup1\n      dup3\n      add\n      dup4\n      mstore\n      swap1\n      dup4\n      swap1\n      mstore\n        /* \"@chainlink/contracts-ccip/src/v0.8/ccip/libraries/Client.sol\":1394:1450  abi.encodeWithSelector(EVM_EXTRA_ARGS_V1_TAG, extraArgs) */\n      dup2\n      mload\n      0x24\n      dup1\n      dup3\n      add\n        /* \"#utility.yul\":956:988   */\n      swap5\n      swap1\n      swap5\n      mstore\n        /* \"@chainlink/contracts-ccip/src/v0.8/ccip/libraries/Client.sol\":1394:1450  abi.encodeWithSelector(EVM_EXTRA_ARGS_V1_TAG, extraArgs) */\n      dup3\n      mload\n      dup1\n      dup3\n      sub\n      swap1\n      swap5\n      add\n      dup5\n      mstore\n        /* \"#utility.yul\":929:947   */\n      0x44\n      add\n        /* \"@chainlink/contracts-ccip/src/v0.8/ccip/libraries/Client.sol\":1394:1450  abi.encodeWithSelector(EVM_EXTRA_ARGS_V1_TAG, extraArgs) */\n      swap1\n      swap2\n      mstore\n      dup2\n      add\n      dup1\n      mload\n      sub(shl(0xe0, 0x01), 0x01)\n      and\n      shl(0xe0, 0x97a657c9)\n      or\n      swap1\n      mstore\n      swap1\n        /* \"EncodedExtraArgs.sol\":1266:1553  function encode(... */\n      jump\n    tag_4:\n      mload(0x40)\n      tag_8\n      swap2\n      swap1\n      tag_9\n      jump\t// in\n    tag_8:\n      mload(0x40)\n      dup1\n      swap2\n      sub\n      swap1\n      return\n        /* \"#utility.yul\":14:194   */\n    tag_6:\n        /* \"#utility.yul\":73:79   */\n      0x00\n        /* \"#utility.yul\":126:128   */\n      0x20\n        /* \"#utility.yul\":114:123   */\n      dup3\n        /* \"#utility.yul\":105:112   */\n      dup5\n        /* \"#utility.yul\":101:124   */\n      sub\n        /* \"#utility.yul\":97:129   */\n      slt\n        /* \"#utility.yul\":94:146   */\n      iszero\n      tag_18\n      jumpi\n        /* \"#utility.yul\":142:143   */\n      0x00\n        /* \"#utility.yul\":139:140   */\n      dup1\n        /* \"#utility.yul\":132:144   */\n      revert\n        /* \"#utility.yul\":94:146   */\n    tag_18:\n      pop\n        /* \"#utility.yul\":165:188   */\n      calldataload\n      swap2\n        /* \"#utility.yul\":14:194   */\n      swap1\n      pop\n      jump\t// out\n        /* \"#utility.yul\":199:745   */\n    tag_9:\n        /* \"#utility.yul\":309:313   */\n      0x00\n        /* \"#utility.yul\":338:340   */\n      0x20\n        /* \"#utility.yul\":367:369   */\n      dup1\n        /* \"#utility.yul\":356:365   */\n      dup4\n        /* \"#utility.yul\":349:370   */\n      mstore\n        /* \"#utility.yul\":399:405   */\n      dup4\n        /* \"#utility.yul\":393:406   */\n      mload\n        /* \"#utility.yul\":442:448   */\n      dup1\n        /* \"#utility.yul\":437:439   */\n      0x20\n        /* \"#utility.yul\":426:435   */\n      dup6\n        /* \"#utility.yul\":422:440   */\n      add\n        /* \"#utility.yul\":415:449   */\n      mstore\n        /* \"#utility.yul\":467:468   */\n      0x00\n        /* \"#utility.yul\":477:617   */\n    tag_20:\n        /* \"#utility.yul\":491:497   */\n      dup2\n        /* \"#utility.yul\":488:489   */\n      dup2\n        /* \"#utility.yul\":485:498   */\n      lt\n        /* \"#utility.yul\":477:617   */\n      iszero\n      tag_22\n      jumpi\n        /* \"#utility.yul\":586:600   */\n      dup6\n      dup2\n      add\n        /* \"#utility.yul\":582:605   */\n      dup4\n      add\n        /* \"#utility.yul\":576:606   */\n      mload\n        /* \"#utility.yul\":552:569   */\n      dup6\n      dup3\n      add\n        /* \"#utility.yul\":571:573   */\n      0x40\n        /* \"#utility.yul\":548:574   */\n      add\n        /* \"#utility.yul\":541:607   */\n      mstore\n        /* \"#utility.yul\":506:516   */\n      dup3\n      add\n        /* \"#utility.yul\":477:617   */\n      jump(tag_20)\n    tag_22:\n        /* \"#utility.yul\":481:484   */\n      pop\n        /* \"#utility.yul\":666:667   */\n      0x00\n        /* \"#utility.yul\":661:663   */\n      0x40\n        /* \"#utility.yul\":652:658   */\n      dup3\n        /* \"#utility.yul\":641:650   */\n      dup7\n        /* \"#utility.yul\":637:659   */\n      add\n        /* \"#utility.yul\":633:664   */\n      add\n        /* \"#utility.yul\":626:668   */\n      mstore\n        /* \"#utility.yul\":736:738   */\n      0x40\n        /* \"#utility.yul\":729:731   */\n      0x1f\n        /* \"#utility.yul\":725:732   */\n      not\n        /* \"#utility.yul\":720:722   */\n      0x1f\n        /* \"#utility.yul\":712:718   */\n      dup4\n        /* \"#utility.yul\":708:723   */\n      add\n        /* \"#utility.yul\":704:733   */\n      and\n        /* \"#utility.yul\":693:702   */\n      dup6\n        /* \"#utility.yul\":689:734   */\n      add\n        /* \"#utility.yul\":685:739   */\n      add\n        /* \"#utility.yul\":677:739   */\n      swap3\n      pop\n      pop\n      pop\n        /* \"#utility.yul\":199:745   */\n      swap3\n      swap2\n      pop\n      pop\n      jump\t// out\n\n    auxdata: 0xa2646970667358221220e7124b4e1cb6cfa77f13935e28e0b3681191c3ca97134e71803e0f02a21811c364736f6c63430008180033\n}\n",
				"bytecode": {
					"linkReferences": {},
					"object": "608060405234801561001057600080fd5b5061012c806100206000396000f3fe6080604052348015600f57600080fd5b506004361060285760003560e01c8063deb21fa214602d575b600080fd5b607d60383660046091565b604080516020808201835290839052815160248082019490945282518082039094018452604401909152810180516001600160e01b03166397a657c960e01b17905290565b6040516088919060a9565b60405180910390f35b60006020828403121560a257600080fd5b5035919050565b60006020808352835180602085015260005b8181101560d55785810183015185820160400152820160bb565b506000604082860101526040601f19601f830116850101925050509291505056fea2646970667358221220e7124b4e1cb6cfa77f13935e28e0b3681191c3ca97134e71803e0f02a21811c364736f6c63430008180033",
					"opcodes": "PUSH1 0x80 PUSH1 0x40 MSTORE CALLVALUE DUP1 ISZERO PUSH2 0x10 JUMPI PUSH1 0x0 DUP1 REVERT JUMPDEST POP PUSH2 0x12C DUP1 PUSH2 0x20 PUSH1 0x0 CODECOPY PUSH1 0x0 RETURN INVALID PUSH1 0x80 PUSH1 0x40 MSTORE CALLVALUE DUP1 ISZERO PUSH1 0xF JUMPI PUSH1 0x0 DUP1 REVERT JUMPDEST POP PUSH1 0x4 CALLDATASIZE LT PUSH1 0x28 JUMPI PUSH1 0x0 CALLDATALOAD PUSH1 0xE0 SHR DUP1 PUSH4 0xDEB21FA2 EQ PUSH1 0x2D JUMPI JUMPDEST PUSH1 0x0 DUP1 REVERT JUMPDEST PUSH1 0x7D PUSH1 0x38 CALLDATASIZE PUSH1 0x4 PUSH1 0x91 JUMP JUMPDEST PUSH1 0x40 DUP1 MLOAD PUSH1 0x20 DUP1 DUP3 ADD DUP4 MSTORE SWAP1 DUP4 SWAP1 MSTORE DUP2 MLOAD PUSH1 0x24 DUP1 DUP3 ADD SWAP5 SWAP1 SWAP5 MSTORE DUP3 MLOAD DUP1 DUP3 SUB SWAP1 SWAP5 ADD DUP5 MSTORE PUSH1 0x44 ADD SWAP1 SWAP2 MSTORE DUP2 ADD DUP1 MLOAD PUSH1 0x1 PUSH1 0x1 PUSH1 0xE0 SHL SUB AND PUSH4 0x97A657C9 PUSH1 0xE0 SHL OR SWAP1 MSTORE SWAP1 JUMP JUMPDEST PUSH1 0x40 MLOAD PUSH1 0x88 SWAP2 SWAP1 PUSH1 0xA9 JUMP JUMPDEST PUSH1 0x40 MLOAD DUP1 SWAP2 SUB SWAP1 RETURN JUMPDEST PUSH1 0x0 PUSH1 0x20 DUP3 DUP5 SUB SLT ISZERO PUSH1 0xA2 JUMPI PUSH1 0x0 DUP1 REVERT JUMPDEST POP CALLDATALOAD SWAP2 SWAP1 POP JUMP JUMPDEST PUSH1 0x0 PUSH1 0x20 DUP1 DUP4 MSTORE DUP4 MLOAD DUP1 PUSH1 0x20 DUP6 ADD MSTORE PUSH1 0x0 JUMPDEST DUP2 DUP2 LT ISZERO PUSH1 0xD5 JUMPI DUP6 DUP2 ADD DUP4 ADD MLOAD DUP6 DUP3 ADD PUSH1 0x40 ADD MSTORE DUP3 ADD PUSH1 0xBB JUMP JUMPDEST POP PUSH1 0x0 PUSH1 0x40 DUP3 DUP7 ADD ADD MSTORE PUSH1 0x40 PUSH1 0x1F NOT PUSH1 0x1F DUP4 ADD AND DUP6 ADD ADD SWAP3 POP POP POP SWAP3 SWAP2 POP POP JUMP INVALID LOG2 PUSH5 0x6970667358 0x22 SLT KECCAK256 0xE7 SLT 0x4B 0x4E SHR 0xB6 0xCF 0xA7 PUSH32 0x13935E28E0B3681191C3CA97134E71803E0F02A21811C364736F6C6343000818 STOP CALLER "
				},
				"gasEstimates": {
					"creation": {
						"codeDepositCost": "60000",
						"executionCost": "111",
						"totalCost": "60111"
					},
					"external": {
						"encode(uint256)": "infinite"
					}
				},
				"methodIdentifiers": {
					"encode(uint256)": "deb21fa2"
				}
			},
			"storageLayout": {
				"storage": [],
				"types": null
			},
			"userdoc": {
				"kind": "user",
				"methods": {},
				"version": 1
			}
		}
	}
}